S00D000074696D65722E73726563F6
S11300000C943A000C9457000C9457000C9457002D
S11300100C9457000C9457000C9457000C94570000
S11300200C9457000C9457000C9457000C945700F0
S11300300C9457000C9457000C9457000C945700E0
S11300400C9457000C9457000C9457000C945700D0
S11300500C9457000C9457000C9457000C945700C0
S11300600C9457000C9457006364696E6F70737539
S113007078585B0011241FBECFEFD8E0DEBFCDBFA0
S113008012E0A0E0B1E0E2EFF7E102C005900D92CA
S1130090A03FB107D9F723E0A0EFB2E001C01D9261
S11300A0A430B207E1F70E94B5020C94F70B0C944C
S11300B000009091C00095FFFCCF8093C60080E0C3
S11300C090E008958091C00087FFFCCF8091C60026
S11300D090E00895CF92DF92EF92FF920F931F93D7
S11300E0CF93DF93C82FD62F04E810E0F8011182D4
S11300F01082808191819F938F9380E091E09F9300
S11301008F930E94E805F801118210828081918109
S11301109F938F9386E291E09F938F930E94E805CB
S1130120F80111821082EC2E0C2E000CFF08CD2E4B
S11301300D2E000CDD08808191819F938F938AE4BA
S113014091E09F938F930E94E805C701B6010E9436
S1130150C803062E000C770B7F936F93DF92DF9317
S1130160FF92CF93CD9F802D1124282F082E000CB1
S1130170330B3F938F93DF92DF93FF92CF938C2FB8
S11301808D0F282F082E000C330B3F938F93DF9293
S1130190DF93FF92CF938FE691E09F938F930E941A
S11301A0E8058DB79EB780960FB6F8949EBF0FBE34
S11301B08DBFDF91CF911F910F91FF90EF90DF9052
S11301C0CF900895EF92FF920F931F93CF93DF93F5
S11301D0EC018B0184E8E82EF12CF70111821082E6
S11301E0808191819F938F9380E091E09F938F937F
S11301F00E94E805F70111821082808191819F930A
S11302008F9386E291E09F938F930E94E805F70114
S113021011821082808191819F938F938AE491E06F
S11302209F938F930E94E805CE01B8010E94C803F2
S11302307F936F931F930F93DF93CF93C09FC0015E
S1130240C19F900DD09F900D11249F938F931F9366
S11302500F93DF93CF93CE01800F911F9F938F93C2
S11302601F930F93DF93CF9381EA91E09F938F9332
S11302700E94E8058DB79EB780960FB6F8949EBF8E
S11302800FBE8DBFDF91CF911F910F91FF90EF9023
S113029008958F929F92AF92BF92CF92DF92EF9286
S11302A0FF92CF93DF936B017C0149015A01C4E8AB
S11302B0D0E019821882888199819F938F9380E07E
S11302C091E09F938F930E94E80519821882888198
S11302D099819F938F9386E291E09F938F930E94DD
S11302E0E80519821882888199819F938F938AE403
S11302F091E09F938F930E94E805C701B601A50181
S113030094010E94DC035F934F933F932F93BF921A
S1130310AF929F928F92FF92EF92DF92CF92A701BA
S11303209601C501B4010E94B8039F938F937F93F4
S11303306F93BF92AF929F928F92FF92EF92DF9250
S1130340CF92D701C601880D991DAA1DBB1DBF936D
S1130350AF939F938F93BF92AF929F928F92FF928E
S1130360EF92DF92CF9284ED91E09F938F930E945E
S1130370E8058DB79EB7C2960FB6F8949EBF0FBE20
S11303808DBFDF91CF91FF90EF90DF90CF90BF9022
S1130390AF909F908F900895CF93DF93C4E8D0E0FF
S11303A019821882888199819F938F9380E091E0CC
S11303B09F938F930E94E8051982188288819981FE
S11303C09F938F9386E291E09F938F930E94E80519
S11303D019821882888199819F938F938AE491E08E
S11303E09F938F930E94E8058DB79EB70C960FB626
S11303F0F8949EBF0FBE8DBFDF91CF9108956F9289
S11304007F928F929F92AF92BF92CF92DF92EF92A0
S1130410FF920F931F93CF93DF934B015C0139013C
S11304208A01C4E8D0E019821882888199819F9357
S11304308F9380E091E09F938F930E94E805198247
S11304401882888199819F938F9386E291E09F938C
S11304508F930E94E80519821882888199819F935D
S11304608F938AE491E09F938F930E94E805F62C82
S1130470E72CD02EC12E262D372D402F512FE401ED
S11304801A2D0B2DB4018A2D9B2D0E94B8049F9325
S11304908F937F936F93CF92DF927F926F92BF92ED
S11304A0AF92DF938F92B701C601272F362F492FC2
S11304B0582FF801682D7D2F8F2F9E2F0E947B05CA
S11304C09F938F937F936F93CF92DF927F926F92DC
S11304D0BF92AF92DF938F92B701C601272F362FB9
S11304E0492F582FF801682D7D2F8F2F9E2F0E94A2
S11304F04C049F938F937F936F93CF92DF927F925D
S11305006F92BF92AF92DF938F9280E192E09F93BC
S11305108F930E94E8058DB79EB7C2960FB6F894E4
S11305209EBF0FBE8DBFDF91CF911F910F91FF90A2
S1130530EF90DF90CF90BF90AF909F908F907F907F
S11305406F90089587E690E09093C5008093C4006F
S11305501092C00088E18093C10086E08093C200BD
S1130560089581E08093810008954F925F926F9285
S11305707F92AF92BF92CF92DF92EF92FF920F934E
S11305801F93CF93DF93CDB7DEB7A2970FB6F8943E
S1130590DEBF0FBECDBF87E690E09093C500809389
S11305A0C4001092C00088E18093C10086E080936B
S11305B0C200E0EFF2E089E590E09187808782E66F
S11305C090E09387828783E0838315861486AEEF59
S11305D0B2E01596FC93EE9314971396FC93EE9366
S11305E01297ED93FC9381E08093810081E492E083
S11305F09F938F930E94E805CE014D969F938F930E
S113060001969F938F938DE592E09F938F930E9421
S1130610FE056D8D8E8D0E946A0087E692E09F93A1
S11306208F930E94E805CE0149969F938F9302967B
S11306309F938F9384E892E09F938F930E94FE058B
S1130640698D7A8D8B8D9C8D0E94E2008CE892E0FE
S11306509F938F930E94E805CE0141969F938F93B9
S113066004969F938F9309EA12E01F930F930E94BD
S1130670FE0529893A894B895C896D897E898F8930
S1130680988D0E94490181EB92E09F938F930E9481
S1130690E805CE0109969F938F9304969F938F93B9
S11306A01F930F930E94FE050FB6F894DEBF0FBE92
S11306B0CDBF49855A856B857C85DB01CA01BB0F9B
S11306C0880B982FDC018F8F98A3A9A3BAA38D85DB
S11306D09E85AF85B8892C013D01770C4408542CC4
S11306E032015A016B01EF8CFE2C0E2D1E2D9C0144
S11306F0AD01642D742D842D942D0E94CC018EECBB
S113070092E09F938F930E94E805CE0101969F93F8
S11307108F9304969F938F9389EE92E09F938F9388
S11307200E94FE0529813A814B815C816D817E8125
S11307308F8198850E94FF010FB6F894DEBF0FBE2B
S1130740CDBF80E090E0A2960FB6F894DEBF0FBE56
S1130750CDBFDF91CF911F910F91FF90EF90DF906C
S1130760CF90BF90AF907F906F905F904F9008951F
S1130770DB018F939F930E94FB03BF91AF91A29FD4
S1130780800D911DA39F900DB29F900D112408958B
S113079097FB072E16F4009407D077FD09D00E942A
S11307A0060407FC05D03EF4909581959F4F08956B
S11307B0709561957F4F0895052E97FB1EF4009464
S11307C00E94F30357FD07D00E941A0407FC03D0CC
S11307D04EF40C94F30350954095309521953F4F7A
S11307E04F4F5F4F089590958095709561957F4F19
S11307F08F4F9F4F08950E943C04A59F900DB49F76
S1130800900DA49F800D911D11240895AA1BBB1B5C
S113081051E107C0AA1FBB1FA617B70710F0A61BFC
S1130820B70B881F991F5A95A9F780959095BC011D
S1130830CD010895A1E21A2EAA1BBB1BFD010DC018
S1130840AA1FBB1FEE1FFF1FA217B307E407F5077C
S113085020F0A21BB30BE40BF50B661F771F881F58
S1130860991F1A9469F760957095809590959B01EE
S1130870AC01BD01CF010895A29FB001B39FC00197
S1130880A39F700D811D1124911DB29F700D811DB8
S11308901124911D08955058BB27AA270E94630470
S11308A00C9441050E94330538F00E943A0520F06B
S11308B039F49F3F19F426F40C9430050EF4E095B6
S11308C0E7FB0C942A05E92F0E94520558F3BA1746
S11308D0620773078407950720F079F4A6F50C9452
S11308E074050EF4E0950B2EBA2FA02D0B01B9015F
S11308F090010C01CA01A0011124FF27591B99F092
S1130900593F50F4503E68F11A16F040A22F232F9D
S1130910342F4427585FF3CF469537952795A795ED
S1130920F0405395C9F77EF41F16BA0B620B730B94
S1130930840BBAF09150A1F0FF0FBB1F661F771F05
S1130940881FC2F70EC0BA0F621F731F841F48F4BA
S1130950879577956795B795F7959E3F08F0B0CF43
S11309609395880F08F09927EE0F9795879508952A
S11309700E94CC040C9441050E943A0558F00E9450
S1130980330540F029F45F3F29F00C942A055111F6
S11309900C9475050C9430050E94520568F3992354
S11309A0B1F3552391F3951B550BBB27AA27621767
S11309B07307840738F09F5F5F4F220F331F441F74
S11309C0AA1FA9F335D00E2E3AF0E0E832D09150A8
S11309D05040E695001CCAF72BD0FE2F29D0660F95
S11309E0771F881FBB1F261737074807AB07B0E8D8
S11309F009F0BB0B802DBF01FF2793585F4F3AF0DE
S1130A009E3F510578F00C942A050C9475055F3FC0
S1130A10E4F3983ED4F3869577956795B795F79563
S1130A209F5FC9F7880F911D9695879597F908954B
S1130A30E1E0660F771F881FBB1F621773078407E7
S1130A40BA0720F0621B730B840BBA0BEE1F88F7F6
S1130A50E095089597F99F6780E870E060E0089555
S1130A609FEF80EC089500240A94161617061806C2
S1130A700906089500240A9412161306140605069E
S1130A800895092E0394000C11F4882352F0BB0F2F
S1130A9040F4BF2B11F460FF04C06F5F7F4F8F4F92
S1130AA09F4F089557FD9058440F551F59F05F3FCD
S1130AB071F04795880F97FB991F61F09F3F79F07C
S1130AC087950895121613061406551FF2CF4695FE
S1130AD0F1DF08C0161617061806991FF1CF869580
S1130AE07105610508940895E894BB276627772764
S1130AF0CB0197F908950E948E050C9441050E943C
S1130B00330538F00E943A0520F0952311F00C9437
S1130B102A050C94300511240C9475050E94520585
S1130B2070F3959FC1F3950F50E0551F629FF0013C
S1130B30729FBB27F00DB11D639FAA27F00DB11D55
S1130B40AA1F649F6627B00DA11D661F829F2227DE
S1130B50B00DA11D621F739FB00DA11D621F839F65
S1130B60A00D611D221F749F3327A00D611D231F3B
S1130B70849F600D211D822F762F6A2F11249F5789
S1130B8050409AF0F1F088234AF0EE0FFF1FBB1F8C
S1130B90661F771F881F91505040A9F79E3F51054B
S1130BA080F00C942A050C9475055F3FE4F3983E9D
S1130BB0D4F3869577956795B795F795E7959F5FF5
S1130BC0C1F7FE2B880F911D9695879597F9089587
S1130BD0A0E0B0E0EEEEF5E00C94D00BAE014B5F7C
S1130BE05F4FFA0161917191AF018091000390917F
S1130BF001030E941406E2E00C94EC0BA0E0B0E0C8
S1130C00E4E0F6E00C94D00BAE014B5F5F4FFA01C9
S1130C1061917191AF018091FE029091FF020E9457
S1130C209109E2E00C94EC0BABE0B0E0EAE1F6E011
S1130C300C94C00B6C017B018A01FC0117821682A3
S1130C40838181FFCCC1CE0101963C01F6019381E1
S1130C50F70193FD859193FF81917F01882309F426
S1130C60BAC1853239F493FD859193FF81917F0157
S1130C70853229F4B60190E00E940A0BE7CF912C4B
S1130C80212C312CFFE1F315D8F08B3279F038F4B4
S1130C90803279F08332A1F4232D20611DC08D327E
S1130CA061F0803369F4232D216016C0832D8260A6
S1130CB0382EE32DE4603E2E2AC0F32DF8601DC0CB
S1130CC037FC2DC020ED280F2A3040F08E32B9F4C5
S1130CD036FC81C1232D2064322E19C036FE06C095
S1130CE08AE0989E200D1124922E11C0EAE02E9ED7
S1130CF0200D1124222EF32DF0623F2E08C08C36D5
S1130D0021F4832D8068382E02C0883641F4F7011F
S1130D1093FD859193FF81917F018111B3CF982F2A
S1130D209F7D9554933028F40C5F1F4F9FE3998364
S1130D300DC0833631F0833771F0833509F059C023
S1130D4021C0F801808189830E5F1F4F882483941A
S1130D50912C530113C02801F2E04F0E511CF801ED
S1130D60A080B18036FE03C0692D70E002C06FEF31
S1130D707FEFC5010E94C10A4C018201F32DFF7768
S1130D803F2E16C0280122E0420E511CF801A0801B
S1130D90B18036FE03C0692D70E002C06FEF7FEFB3
S1130DA0C5010E94B60A4C01F32DF0683F2E820162
S1130DB033FC1BC0822D90E088169906B0F4B6016E
S1130DC080E290E00E940A0B2A94F4CFF50137FCEC
S1130DD0859137FE81915F01B60190E00E940A0B74
S1130DE021102A9421E0821A91088114910471F748
S1130DF0E8C0843611F0893641F5F80137FE07C0A2
S1130E0060817181828193810C5F1F4F08C0608172
S1130E107181072E000C880B990B0E5F1F4FF32D69
S1130E20FF763F2E97FF09C0909580957095619548
S1130E307F4F8F4F9F4FF0683F2E2AE030E0A30191
S1130E400E945F0B882E861845C0853731F4232D08
S1130E502F7EB22E2AE030E025C0932D997FB92E43
S1130E608F36C1F018F4883579F0B5C0803719F0A1
S1130E70883721F0B0C0E92FE061BE2EB4FE0DC06A
S1130E80FB2DF460BF2E09C034FE0AC0292F266052
S1130E90B22E06C028E030E005C020E130E002C0F8
S1130EA020E132E0F801B7FE07C0608171818281E0
S1130EB093810C5F1F4F06C06081718180E090E0D8
S1130EC00E5F1F4FA3010E945F0B882E8618FB2D17
S1130ED0FF773F2E36FE0DC0232D2E7FA22E8914C0
S1130EE058F434FE0BC032FC09C0832D8E7EA82E2C
S1130EF005C0B82CA32C03C0B82C01C0B92CA4FE87
S1130F000FC0FE01E80DF11D8081803321F49A2D7C
S1130F10997EA92E09C0A2FE06C0B394B39404C05E
S1130F208A2D867809F0B394A3FC11C0A0FE06C0F4
S1130F30B21488F4280C922C9B180EC0B21460F4DE
S1130F40B60180E290E00E940A0BB394F7CFB2148A
S1130F5018F42B1802C0982C212CA4FE10C0B60142
S1130F6080E390E00E940A0BA2FE17C0A1FC03C01C
S1130F7088E790E002C088E590E0B6010CC08A2DB5
S1130F80867859F0A1FE02C08BE201C080E2A7FC82
S1130F908DE2B60190E00E940A0B891438F4B60180
S1130FA080E390E00E940A0B9A94F7CF8A94F301AD
S1130FB0E80DF11D8081B60190E00E940A0B8110BA
S1130FC0F5CF222009F442CEB60180E290E00E94DF
S1130FD00A0B2A94F6CFF6018681978102C08FEF1F
S1130FE09FEF2B96E2E10C94DC0B20FD09C0FC0181
S1130FF023FD05C022FF02C07383628351834083B3
S1131000089544FD17C046FD17C0AB01BC01DA01C9
S1131010FB01AA0FBB1FEE1FFF1F1094D1F74A0F4D
S11310205B1F6E1F7F1FCB01BA01660F771F881FDE
S1131030991F09C033E001C034E0660F771F881F91
S1131040991F3150D1F7620F711D811D911D0895B3
S11310500F931F93CF93DF938C01C8010E94CC0A96
S1131060EC0197FD08C00E94A20A892BB1F7B801D0
S1131070CE010E94460BCE01DF91CF911F910F91BB
S113108008958F929F92AF92BF92EF92FF920F9327
S11310901F93CF93DF938C01D62F7A01B22E0E9437
S11310A0CC0A9C0133272B32310531F02D32310526
S11310B061F48B2D8068B82ED15011F480E068C0A3
S11310C0C8010E94CC0A97FDF9CFCB2DCD7F2B2DE3
S11310D0207309F58033F9F4AA24AA94AD0E09F417
S11310E043C0C8010E94CC0A97FD3EC09C012F7DDD
S11310F033272835310549F4C264D250A9F1C80117
S11311000E94CC0A97FF07C02FC0B6FE02C0C2607F
S113111001C0C261DA2D812C912C540120ED280FDD
S1131120283080F0C4FF04C0B8010E94460B19C0E7
S11311302A3040F0C6FFF8CF2F7D3FEE320F363015
S113114098F727504C2FC501B4010E9401084B01A8
S11311505C01C260D15059F0C8010E94CC0A97FFCB
S1131160DDCFC1FD04C0AACF812C912C5401C7FF4F
S113117008C0B094A09490948094811C911CA11CEC
S1131180B11C2C2FB501A401C7010E94F50781E011
S1131190DF91CF911F910F91FF90EF90BF90AF908F
S11311A09F908F900895A0E2B0E0E9EDF8E00C94F0
S11311B0C30B5C01962E7A01F9018E010F5F1F4F5C
S11311C0680180E2D8011D928A95E9F7D50113964A
S11311D08C9080E090E0612C712C30E061E070E054
S11311E083FC259183FE21918F01522E211103C08E
S11311F080E090E092C02E3511F4009751F1432F16
S113120050E0481759073CF42D3559F12D3219F4A3
S1131210772009F103C0772009F46AC0452D46956B
S113122046954695D601A40FB11D452D47708B01F7
S113123002C0000F111F4A95E2F7A8015C91452BEB
S11312404C93651459F0561410F45394E7CF5A9400
S1131250E5CF31E004C07724739401C0712C01966A
S1131260BFCF772019F08E8180628E83311103C045
S11312708824839417C0F6019E012F5D3F4F80811F
S1131280809581932E173F07D1F7F2CFE114F10433
S113129029F0D7018C93F70131967F019A94812C20
S11312A09920F9F0C5010E94CC0A97FD18C0FC01F1
S11312B0FF2723E0F595E7952A95E1F7EC0DFD1D51
S11312C0208130E0AC014770552702C03595279541
S11312D04A95E2F720FDDACFB5010E94460B811052
S11312E087CFE114F10411F0D7011C92C80115C095
S11312F0422F469546954695D601A40FB11D422F1F
S113130047708B0102C0000F111F4A95E2F7A80134
S11313105C91452B4C93622EA2CFA096EFE00C94E7
S1131320DF0BA0E0B0E0E7E9F9E00C94C30B6C013B
S1131330EB015A01FC0117821682512CF601E3805D
S1131340FE01E3FC8591E3FE8191182FEF018823D0
S113135009F4EEC090E00E94A20A892B21F0C60194
S11313600E942808EBCF153241F4FE01E3FC1591ED
S1131370E3FE1191EF01153281F4C6010E94CC0AFB
S113138097FDD4C0412F50E09C0133272417350723
S1131390A9F2B6010E94460BCBC01A3239F4E3FC21
S11313A01591E3FE1191EF0101E001C000E0F12C81
S11313B020ED210F2A3080F402606F2D70E080E070
S11313C090E040E20E940108F62EFE01E3FC159134
S11313D0E3FE1191EF01ECCF01FF03C0F11003C054
S11313E0A7C0FF24FA94183619F01C3651F010C027
S11313F0FE01E3FC1591E3FE1191EF01183641F46F
S113140008600460FE01E3FC1591E3FE1191EF0115
S1131410112309F48DC0612F70E088E690E00E94EA
S1131420AB0A892B09F484C000FD07C0F501808054
S11314309180C50102965C0102C0812C912C1E365C
S113144051F4F6014681578160E070E0202FC40119
S11314500E94F50773CF1336A9F401FD02C0FF24DF
S1131460F394C6010E94CC0A97FD60C081149104D4
S113147029F0F4018083C40101964C01FA94F1101F
S1131480F0CF50C01B3559F49E01A4016F2DC60145
S11314900E94D308EC01892B09F044C03EC0C60168
S11314A00E94280897FD42C01F3661F128F41436C3
S11314B039F1193651F128C0133771F0153701F19C
S11314C023C08114910429F0F4016082C4010196BF
S11314D04C01FA94FF2071F0C6010E94CC0A3C0131
S11314E097FD08C00E94A20A892B59F3B601C301D3
S11314F00E94460B81149104A9F0F401108212C0D9
S1131500006203C0006101C00064202FA4016F2D9C
S1131510C6010E944108811105C0F60183818073D0
S113152029F406C000FD0ACF539408CF552019F0C2
S1131530852D90E002C08FEF9FEFCDB7DEB7EFE0CF
S11315400C94DF0B91110C94BD0B803219F089506F
S11315508550C8F70895FC010590061621F0002077
S1131560D9F7C00108953197CF010895FC01059082
S1131570615070400110D8F7809590958E0F9F1F91
S11315800895FC016150704001900110D8F78095D6
S113159090958E0F9F1F0895CF93DF93EC012B81BD
S11315A020FF33C026FF0AC02F7B2B838E819F81AF
S11315B001969F838E838A8190E029C022FF0FC009
S11315C0E881F9818081082E000C990B009719F4A9
S11315D020622B831AC03196F983E8830EC0EA8512
S11315E0FB85099597FF09C02B81019611F080E2D4
S11315F001C080E1822B8B8308C02E813F812F5F45
S11316003F4F3F832E83992702C08FEF9FEFDF91D7
S1131610CF9108950F931F93CF93DF93FB01238101
S113162021FD03C08FEF9FEF2CC022FF16C046811F
S11316305781248135814217530744F4A081B18135
S11316409D012F5F3F4F318320838C932681378107
S11316502F5F3F4F3783268314C08B01EC01FB01BE
S11316600084F185E02D0995892BE1F6D8011696C1
S11316708D919C911797019617969C938E9316972C
S1131680CE01DF91CF911F910F910895FB0123812A
S113169020FF12C026FD10C08F3F3FEF930761F07B
S11316A082832F7D20642383268137812150310951
S11316B037832683992708958FEF9FEF0895FA01C2
S11316C0AA27283051F1203181F1E8946F936E7F7D
S11316D06E5F7F4F8F4F9F4FAF4FB1E03ED0B4E06E
S11316E03CD0670F781F891F9A1FA11D680F791FAF
S11316F08A1F911DA11D6A0F711D811D911DA11DC0
S113170020D009F468943F912AE0269F11243019CF
S1131710305D3193DEF6CF010895462F4770405D6A
S11317204193B3E00FD0C9F7F6CF462F4F70405D19
S11317304A3318F0495D31FD4052419302D0A9F774
S1131740EACFB4E0A6959795879577956795BA956E
S1131750C9F700976105710508959B01AC010A2E34
S113176006945795479537952795BA95C9F7620F0B
S1131770731F841F951FA01D089599278827089516
S11317802F923F924F925F926F927F928F929F928D
S1131790AF92BF92CF92DF92EF92FF920F931F937B
S11317A0CF93DF93CDB7DEB7CA1BDB0B0FB6F8942C
S11317B0DEBF0FBECDBF09942A88398848885F846C
S11317C06E847D848C849B84AA84B984C884DF80DD
S11317D0EE80FD800C811B81AA81B981CE0FD11DC1
S11317E00FB6F894DEBF0FBECDBFED010895F89497
S10517F0FFCF25
S11317F20A5A6D6965727A6F6E7920637A61732011
S1131802646F646177616E69613A2025752063793A
S11318126B6C690D0A005A6D6965727A6F6E792074
S1131822637A6173206D6E6F7A656E69613A202501
S1131832752063796B6C690D0A005A6D6965727A59
S11318426F6E7920637A617320647A69656C656E60
S113185269613A2025752063796B6C690D0A006908
S11318626E74385F743A202569202B202569203D47
S11318722025692C202569202A202569203D202540
S1131882692C202569202F202569203D2025690AFD
S113189200696E7431365F743A202569202B202545
S11318A269203D2025692C202569202A20256920CC
S11318B23D2025692C202569202F202569203D20E3
S11318C225690A00696E7433325F743A20256C69A3
S11318D2202B20256C69203D20256C692C20256C49
S11318E269202A20256C69203D20256C692C20253D
S11318F26C69202F20256C69203D20256C690A0023
S1131902666C6F61743A202566202B202566203D83
S11319122025662C202566202A202566203D2025A8
S1131922662C202566202F202566203D2025660A68
S1131932000A456E7465722074776F20696E74387C
S11319425F74206E756D626572733A200025686853
S1131952642025686864000A456E74657220747791
S11319626F20696E7431365F74206E756D626572B4
S1131972733A200025686420256864000A456E7461
S113198265722074776F20696E7433325F74206ECF
S1131992756D626572733A2000256C6420256C644F
S11319A2000A456E7465722074776F20696E74360E
S11319B2345F74206E756D626572733A20000A4555
S11319C26E7465722074776F20666C6F6174206E1A
S11319D2756D626572733A200025662025660000E3
S9030000FC
