S00E00006563796672792E7372656384
S11300000C9446000C9450000C9450000C94500036
S11300100C9450000C9450000C9450000C9450001C
S11300200C9450000C9450000C9450000C9450000C
S11300300C9450000C9450000C9450000C945000FC
S11300400C9450000C9450000C9450000C945000EC
S11300500C9450000C9450000C9450000C945000DC
S11300600C9450000C94500060006300660069001A
S11300706C006F00720075005D005A00B600B40099
S1130080B200B000AE00A200B800BA0011241FBE36
S1130090CFEFD8E0DEBFCDBF0E9478000C94C20041
S11300A00C9400008A30910538F4FC01EC5CFF4F9D
S11300B00C94BC0080E98BB9089580E88BB908954D
S11300C080EC8BB9089589EF8BB9089584EA8BB9D4
S11300D0089580EB8BB9089589E98BB9089582E975
S11300E08BB9089582E88BB9089588EF8BB9089588
S11300F08FEF8AB98BB9C0ECB0E8A8EF72E862E977
S113010059E940EB34EA29EF81E090E0FC013297B1
S1130110E830F10598F0CBB9DFEFE3EDF0E3D1502F
S1130120E040F040E1F700C000008930910561F340
S11301300196FC013297E830F10568F7E25CFF4F65
S11301400C94BC007BB9DFEFE3EDF0E3D150E04069
S1130150F040E1F700C000000196EBCF6BB9F3CF9C
S11301605BB9F1CF4BB9EFCF3BB9EDCF2BB9EBCFA7
S1130170ABB9E9CFBBB9D0CFEE0FFF1F0590F49117
S10B0180E02D0994F894FFCF6F
S9030000FC
