S01600007461736B315F6C656462746E76332E73726563A9
S113000010C01FC01EC01DC01CC01BC01AC019C018
S113001018C017C016C079C014C013C012C011C0D4
S113002010C011241FBECFE5D2E0DEBFCDBF20E05B
S1130030A0E6B0E001C01D92AE3DB207E1F7D7D013
S1130040E6C0DECFE0916200F091630089B390E0F6
S1130050EE0FFF1FEC59FF4F918380838091620064
S11300609091630001969093630080936200809165
S1130070620090916300CD97B1F0209160003091BF
S113008061008091620090916300821793075CF095
S11300908091620090916300CD9724F010926300E8
S11300A0109262000895E0916000F0916100EE0FFB
S11300B0FF1FEC59FF4F8081918187FD15C0C29AC3
S11300C0809160009091610001969093610080930B
S11300D060008091600090916100CD97CCF2109205
S11300E0610010926000D4CFC2988091600090911A
S11300F0610001969093610080936000EACF83E0F1
S113010083BF89B7816089BF08951F920F920FB68C
S11301100F9211242F933F938F939F93EF93FF9309
S1130120E0916200F091630089B390E0EE0FFF1F4D
S1130130EC59FF4F9183808380916200909163001A
S11301400196909363008093620080916200909185
S11301506300CD9701F1209160003091610080919E
S113016062009091630082179307ACF08091620063
S113017090916300CD9724F0109263001092620076
S1130180FF91EF919F918F913F912F910F900FBE0F
S11301900F901F901895E0916000F0916100EE0FB0
S11301A0FF1FEC59FF4F8081918187FD15C0C29AD2
S11301B0809160009091610001969093610080931A
S11301C060008091600090916100CD977CF2109264
S11301D0610010926000CACFC29880916000909133
S11301E0610001969093610080936000EACFDF9AEA
S11301F0BA9A83E083BF89B7816089BF789485B751
S1130200806285BF889585B78F7D85BFF8CFF894C8
S1050210FFCF1A
S9030000FC
