S01300006D757369635F7461736B342E73726563AA
S11300000C94DF1C0C94FC1C0C94FC1C0C94FC1C29
S11300100C94FC1C0C94FC1C0C94FC1C0C94FC1CFC
S11300200C94FC1C0C94FC1C0C94FC1C0C94191DCE
S11300300C94FC1C0C94FC1C0C94FC1C0C94FC1CDC
S11300400C94FC1C0C94FC1C0C94FC1C0C94FC1CCC
S11300500C94FC1C0C94FC1C0C94FC1C0C94FC1CBC
S11300600C94FC1C0C94FC1C858383838687808001
S11300708384817E7E7E7D7A7B7F7B7C7E7C7C7CA0
S11300807C7F807D7E7E7F7E7B82827D7F7E808082
S11300907D82858283848584858886858486838021
S11300A082817F7F84807A7B7F7E7C7D7D7B7B7B6E
S11300B07D7C7C7F7E7D7C7E807C7F8180827D7F59
S11300C082818484848384868384838587808280F8
S11300D07D8283827F7D7F81807C7F807E7E7D7A2E
S11300E07B7F7D7C7F7C7B7D7B7B7C7D7F807F7E3B
S11300F081878583898A82828485847E8387817EC1
S1130100818482818284807E7F807E7E7F7E7D79F1
S11301107A7B7E7D787E7E79797F817D7C7F848009
S11301207F818388828388837F848782818284839A
S11301307E8284818284827E8081827E7F827C7AB8
S11301407B797C7D7B7D7F7B7D7C7F827B7D837DDA
S11301507D8082848084868382848583838687826B
S1130160818284828182807D7D7F817D7E827D7B90
S11301707C807E7A7F7F7C7D7A7C7C7C817C7D7EAA
S113018081817E8582848383867D818A8581878639
S113019081838584838181827E7C81837C7D7F7A57
S11301A07C7C7C7C7C7C7D7D7B7C7C7F7F7C7F817C
S11301B07F7E808382808586838081858583828516
S11301C0838186858186858082807F7F7D7F7E791D
S11301D07D7D797D7C7D7D7B7C7D7E7B7D827E7C4F
S11301E07E817E80848282838582808485848485E6
S11301F08180848485838282817F807F7F817F7BED
S11302007D7D7C7D7C7F7F797E7F797D7F7F7C7C1B
S11302107D7F7D7E828182838182838485878683BC
S11302208585818583828383817D7F808181807EB2
S11302307B7C7E7C7B7C7E7B7A7D7C7B7D7F7E7CF5
S11302407F7D7E817C83837F83838282878685858D
S1130250848584828687838183817E81817E7C7C80
S11302607E7C7B7D7E807C7B7E7E7B7C7E7D7C7BBE
S11302707D7E7D7E8181818383848283878682845F
S11302808580838582828483828081827F7F817F4F
S11302907C7B7E7F7C7D7F7E7A7D7F7C7B7D7F7C8B
S11302A07B7C7D7C7D80808082828183858586863F
S11302B08484858586848383817F807F80807F8119
S11302C07E7E807F7E7E7F7E7C7B7D7D7B7B7D7D55
S11302D07B7C7F7E7F81838182838281848483830C
S11302E083838384848585848482828381818180DD
S11302F07E7D7F7E7D7C7F7E7A7B7D7B7C7C7D7C2E
S11303007C7C7D7E7F8181818282828384848583DB
S113031083838384838383828181818281818280B8
S11303207F7F807F7E7E7E7D7C7C7D7C7C7D7D7CF2
S11303307B7C7D7C7E7F80808181828383848485B5
S11303408584848485858484828181818180807F81
S11303507E7E7E7E7E7E7E7D7D7C7C7E7E7D7E7EC0
S11303607D7C7D7D7E7F7F7F80808082828384838D
S11303708484848485858483828181818181808051
S11303807F7F7F7F7F7F7F7E7E7D7D7D7D7D7C7C8B
S11303907B7A7A7C7D7E7F7F808181818383848464
S11303A0838383848584848483828282828181801E
S11303B0807F7F7F7F7E7E7E7D7D7D7D7D7E7E7E58
S11303C07D7C7C7C7D7E7E7E7E7F7F80828383833A
S11303D083838384848484858583838382828281E6
S11303E0807F7E7E7F7F7F7F7E7D7D7E7E7E7D7D26
S11303F07D7C7C7C7D7D7E7E7D7F7F7F808383830F
S113040083838383858585848484828282828181B7
S1130410807F807F7F80807F7F7D7C7C7D7C7D7BF7
S11304207C7D7C7D7C7D7F7E7F7F7D7F81818283DF
S11304308383848585848485858383848282828181
S1130440807F7F807E7E8180807F7C7D7E7E7C7FBE
S11304507D797C7C7A7C7F7C7B81817F81848581B2
S1130460838583817D83847E818785838785838457
S113047084847F7C817E7B7C817876817C7F807C98
S1130480807F7D7B7B807F757987827A7E80837F86
S11304907E85808283858A858389897D80857C7D2C
S11304A0837E7C83827F8B86797B8680717B827E50
S11304B07279887F767A817E81827C78858A7B775F
S11304C0818A78788C847D8592917F7F90897280EF
S11304D07F6F7E838079839089807487876D7D8523
S11304E07D737A887F787881747A827D84718C9523
S11304F0698D917B7F81857F7D729B8871888495CE
S113050078818F8276768E797670848878788197F0
S1130510817F7D857C607D8070647C937E7F8D97F8
S11305207E7D9385776E838A6E77848A7D82948BB1
S113053082828E877D7D8180767A8077747C8780C5
S11305406F838E7B74849272698687737383897ECA
S11305507D918E818087897B77807F797C8A87876C
S1130560888D878782777587795C92756892967F84
S11305707C917A837F7178757B7E7B7484897684A1
S1130580957A7087A14E51FFB400A2FF4A0F7EFFF7
S1130590883FB4FF5500A3AC410070A85349D5FF70
S11305A07C80E4CA4F238779203C96AC5970BBA663
S11305B06A518E9E715F8EBE91758F9670565F657F
S11305C06F768BA19CA1ABA28F7E7B716966677EDF
S11305D071818846AEFF3600ECB72B2EC9DB3E6C2A
S11305E0F5E30043A88B220FAC978480E5F8858B54
S11305F09DA538006A79434FBFCE7B8EC1A9494A75
S11306008689544CA6C58C6893904D35516D6270A3
S1130610A7B4BFC8AE957B804E3647676C6FA0A564
S1130620A99FA09B7A6A6B80686286927D77A78374
S11306306A638DE06300C0DE42329DFF3F3BD0F32E
S11306402C00ADAE40008DE1907CAEFFA9577A86B8
S113065066003F9D7170B5F0AF90B3A76125427DF0
S1130660774275CFC0817A957E433254696F86BADA
S1130670CEB7B7A48771482A57674F69B0C095941D
S113068081D4830075FF5217C4FF9900AEE16C005A
S113069072E846365CFFB62989A3862F438350430C
S11306A09EDC6422F7FA3F6BD2EE252EA3A76500E9
S11306B0B1B334538AD98567B9DA9E1A69B84D142F
S11306C059B98D6293C594748CA587004DFF872713
S11306D09EFCA532749886003EC05D6885DBCB72B3
S11306E0A0A679361F72693B63C4D88AC4CAACA673
S11306F00037E4724463F0B71D94B0A40041B343DF
S1130700514FDCD058AAC5B6422278452147AECF16
S113071095BDCCB19A9274005CFF674A9CFFB252BB
S1130720888F88002A956C7472E1EE7999A87629ED
S11307300556474173D0D386BFC4B5A50013EE96C2
S1130740326FFFE42690B0BD0500BE634445E7EC7C
S113075062949BAE50003E836449A9F6BA86A6A96A
S11307608D4A003FE85B40A9FF9848ADA48D004541
S1130770CA70657DFDDC5C848F8609008F7F4A71B9
S1130780E9FA8EA6AE995B0069E93A2BA5FF8A3F88
S1130790AEA38A004ECA596271F9DA5D8E87873535
S11307A00082795B61D4FF88B1B18F7F0045E55D3C
S11307B02A6AFFB028A9AFB8111AC7835A5BC8EADE
S11307C05570878C54005D8F5254B6FFA396AAA926
S11307D0970034FC702570FFCC399BB1B00E02A792
S11307E07D6C57BEFF665791A3460064936752B071
S11307F0FFA6958C9B8F0037F97C2F8CFFBB3B8920
S1130800999D000DBA956D6CEDFF63648E9A30006E
S11308107A96644DC8FFA39C8EA7510088E14B369D
S1130820A8FF985795A0770041B868596DFFE55D1A
S11308307385A01200948A6164F7F58598A3AE19B4
S113084000D1B52D4EE5FF5E7095B03B0093A75FD8
S11308505696FFAB4D7B9B78002F9E664485FFC860
S113086088A7B4900050FF622489FFAA3CA3AA94ED
S1130870001FBD72686ECAFF86618AAF3800657951
S11308803E38C7FB9A9BBAC33000E7AB2B49D9FF6C
S1130890396B999F39009589536B88FFE26696BD41
S11308A09B0F2474612A57DBCF87A2E67300D6DA44
S11308B03B49B6F254537D82510065934C7184DCFC
S11308C0FF887EC9B0380F5B682624ABD09FA4EDA7
S11308D0A019D8E8595C99ED644F7F7048005074B2
S11308E02A6187C4FDC1A7D1CF67245047120E7A6D
S11308F0A97EA2F9B032DEFF665C9BD270467072AC
S113090049003B7530457DBFFFC9ABEEF687465EB7
S11309104D190D487C6F8AE7AA53F6FF76779DAE92
S1130920674A53584000385E41537CC5F5CEC1FF39
S1130930FE9C6D72551A083D5C5165C4CC6BBFFFBB
S1130940B18A99BA9550414C59010048483C5C9190
S1130950E3F1B4DDFFE3877271491C1D3C53547FFE
S1130960B57B9FFFC5A0B9B39B8160484E1F193169
S113097035384D70A5D2C3E0FFFAC7B09570512B3E
S113098023333237587D807DB7CBB9BDAC9E9E8B67
S11309906E5F4E43484A4853677893ADB5C2CCC6A0
S11309A0BEB3A2846A645E51484A5762707C8083F5
S11309B08F938E89837E7D8788858685827F7773F2
S11309C076727678808C8F959897908A83827C69EA
S11309D07984767A81807E787A7E767A8283868F2D
S11309E08F8686847D756F6D6B6D737E7E7D82834D
S11309F08585818081838788898E90908D8C8E8D6A
S1130A008C89888381827B73706A65696969717A6C
S1130A107F858E94938E8D867E7C79706B707373D4
S1130A20737C83878D9194959896938E89837A7637
S1130A3076747174777A7C808585848480807F7BEA
S1130A407773717173727276797E83848A8C8C8FDA
S1130A508D89898884858482858887888B8988871D
S1130A6082817E7977747171737172747677797C0F
S1130A707C7F8080818080807D7F7F8085888B8F54
S1130A80918F93928A88837F7A7574737172777960
S1130A907A7E83858987898989888684817E7E7E1A
S1130AA07876787876787B79797B787A7C7C7979B2
S1130AB07C7D7F8489898E9090908F9390878583A5
S1130AC082817E75767C747275757A777A817F807F
S1130AD07E888283827C827F81837D7F7F80878101
S1130AE07E818384847C7D80827F7C807C7F7F7B0D
S1130AF07D81818983838B89898784858082827EB5
S1130B007D7B7B7D8074747A747271747C777E8053
S1130B107A8587848A8A918E888F8780848382836A
S1130B207D7F7D7A7D81887E787F81797C838078E2
S1130B307A817E797C847F8281818681817E7C85B5
S1130B407F7A807D827E84888588827D8586817E89
S1130B50848677837C767C7D7C79777A7F817B84BD
S1130B60847B888980818A8A847F84877D7F847D51
S1130B70797B7D7A797F81847E828180817C8A7F82
S1130B807B8480847A7F817E7F7B8085827D86855D
S1130B908280787D837C7481857C7F81807C7F8E5C
S1130BA07E788B8287867A818882807580847F793B
S1130BB08587817E80837E7B81837F7C7E847E7B30
S1130BC07B82777C7A7F887C828885838380888017
S1130BD07D878287797B877A7D827E7A788678772B
S1130BE085827D7E8A807A7F8684767F8283807701
S1130BF0857F80827B8281818383827E7C80827CEC
S1130C00878E847A808783818C797B81708D7E74D2
S1130C107F7A8774838379817A8C8A7A8E84808CB4
S1130C2081766E8680837E7899857E8579827379D4
S1130C30777A8480767F7D827B8289808375898CB4
S1130C407C7E83848C7E80827A7A7C89847E74889C
S1130C50817480817F717E8D83808081858077809F
S1130C607C7E7E89937B8D85768C788488787C7471
S1130C708485817B78897E7274867B808781818379
S1130C80818981807C7284827D857982887C848557
S1130C9081788280867D7A7E808176837B807A7873
S1130CA0928381868E92767E8D7F7D72857B757A26
S1130CB0837F7584827C7F7E818B7876877F817742
S1130CC0857A7790798688858E83897C84867782F5
S1130CD0788188757B847A7E7E7B88747C847B8E25
S1130CE07D748480808379807F818589897D7F7FFD
S1130CF08584797E8285767682897D777B817E7F05
S1130D00818684808B8383777E85837F7B85847CC7
S1130D1083888285787F8079847C7578887F717EEA
S1130D2081747B8485827E85938784888783778C8E
S1130D307E7B867B7F807D7B797E7A857F7B847ECC
S1130D407C7E84887A7C87827E7B8087837C868590
S1130D507D7C807F8584857D80787A8B75777D79AD
S1130D60867C77898C7E848781847C858778877765
S1130D707C887E7F7E797B7E897D7B7C83857F7E7C
S1130D807A7B7D8384838082878988848181807F44
S1130D907E7A7C7C787C7F7F7C797F7C8784818170
S1130DA07C878085807C827F7F8186818185837F2B
S1130DB0808382787E827B7C7C847A79817C817F4B
S1130DC0808284848085867E7F7D808382817C800E
S1130DD07D848782817B80847E827982807A887B0D
S1130DE0787E777D7F7E827E808A8B8581848281F6
S1130DF082827F7C80807E7C7C7F7D7F807C808201
S1130E007F80807F847F808082807D8185858182D0
S1130E107F807F7E7F807E7F8281817E7D7F7F7EDB
S1130E208081807E8182818281807D7D82818282B7
S1130E307E7F828180807F7F8180807F7E808180B1
S1130E407D7B7C7C7F7E8082818386858483838294
S1130E50838282827F7F7F7E7C7A7A7B7D80807EA4
S1130E60808183837E80817F81828180818385826A
S1130E708183817C80817D7F7D7F807F7C7B7A7C88
S1130E807F83828081848685827F7E7F80827F7F4C
S1130E907F81807F8380807E7E838080827F7F7F4E
S1130EA07E7B7B7B7A7D8081848386898584848133
S1130EB0838480807D7A7C7D7E7D7B7B7E81808047
S1130EC081828183847F7E82827E7B808281828410
S1130ED0827F82807F8182807D7F82837E7C7D7B16
S1130EE07D83807D80808282818080817F817F7FFD
S1130EF0827F818382817F828383828282807F7EDC
S1130F007F7C7B7A7B7A7B7E8080858582848484E7
S1130F1082848383828281807E7B7C7B7C7D7D7DD9
S1130F207E837D7F7F7E82807F80828383828183B4
S1130F30808A847B807E7E848280867D74808482A5
S1130F407B80877F767B80807A7C7D777883847CC6
S1130F50858D8582898A89847D7A83847F7E7D7B61
S1130F607B7A777E75777D798783888C7D857E7D96
S1130F7096867C7D79978D597FAA947E77785A607E
S1130F8082706C76797A827E7899B6A0838F9E96E9
S1130F908D8F6B41547A7F6A6F847986A8AD998D61
S1130FA08FAB7F3D6CA8B799979D735C5223181F34
S1130FB00B082C72A6B4B2C4E7FFFFF1C396889362
S1130FC096866E411C313E403B495387D6536AE0B6
S1130FD0FFDBE9FFC0300D2D22130200004A86E436
S1130FE0FFFFC07186D0F9BD6D464D83C1B972282B
S1130FF0071A5B7A6885A899F4C053BBE4A3F6F892
S1131000880C0031745A2E001F3398FFE7C3491629
S11310105FDBFFC04C337BCAE5B854040F597D90A5
S113102082835BBE943AC7A6D9FFD8AA000067C9D9
S1131030A228040082F8A88000054C93FFFFA03B7F
S11310405383CDEDBC5C53A7AF71345A7BD5481B99
S11310505FA0FFD6BF330038B6FF8F000010D6F66E
S1131060D703004688FFFFC00C00ACFFF6983E4251
S1131070A8CFAD290071E1C5173754F6FFDE8B0008
S11310800474FFF430000093FFFF68002153FFFF56
S1131090D2230074F7EC953F3EA8DCB42A0777F915
S11310A08D0F34A9FFD1CA360036D4FF8702003A27
S11310B0F0FFC3000022B6FFDC5C0023E2FFA83887
S11310C028A1EACA870029C0FF7B102A99FFC8B863
S11310D0210036E5FF6E00005EFFFFB0000935E039
S11310E0FFC9370036F6FF88364BACCEAF4B006FE6
S11310F0E3F8500E3FEBFFB59A00007BFFF72800A2
S11311000DAFFFF965000E63F5E2A8060073FFE476
S1131110683079E0D0A81000A5FFD1170D4DFFF27B
S1131120B1790000AAFFAC000E37EEFFDE280022E2
S1131130A8FEBD7A0000B8FFAF4659C3D2AE700016
S113114044D1FE7C001799FFC0AA2E0053F7FF3F3D
S1131150071F87FFF4A7000559D4CCAC500036FF15
S1131160FB5E208CF5CA9B270093E2D41C0E3CFA4C
S1131170FCBE950000BBFFA7001C4DF2F5CB36006A
S11311802BB1E7AC680014CCFF7D2351F1FCB05EB9
S11311900050CAFA770114A1FFBDA641004EFFFC1E
S11311A0361131B0EABE7C000F75DEA4825335904F
S11311B0F48D2E3C9DFFC486381B95DDDD351D3630
S11311C0F5FFB98E0001A8FF87020056F5BEAC23D7
S11311D00033F8FA573479C7E1A62D2663E7E17E98
S11311E03F245BB0C1CD42284DF5FFA9950925A93F
S11311F0F08903004BF8BB97560030FBE0692B7372
S1131200E4DD922E1169DFC04E325A80A79DC35A85
S11312103968EDFF835053A4ADA265000350F2A3D7
S11312205F36308CFCA3323177FFDE80403D97E29D
S11312309A232F798EAA81968B436BA2FFDD5F4E92
S1131240A0B5827C070024AFA95A4C77BED8BE61F2
S11312502356C0BA754F74BBD5A552386190966FAA
S11312604970E6C3525FD4FF97525C7C8A8D6C0F41
S1131270005F9C6A374482B8CEBC958FBFC07A5851
S1131280719591735D6C8F937B63627C8A8B8F8184
S11312907D808898947D67677C8C887B7B7C7D814E
S11312A0867A635F646D777E808493A7A0959DA101
S11312B093827B837F74777B767275797977787A7A
S11312C07F8785899595877C85877771706D6C7725
S11312D0796F737D7E70738287858287929FA69AC9
S11312E08F9DA28A76777F7365676B696F7E867F31
S11312F07979808A898784858C8F8D8D8B807774AA
S113130077746A62646D7070747E878B898C95972C
S1131310919193948E8B8F8C86817F7D7A76716E7A
S113132070736F6D727776777C828585878C8C8DF0
S11313308B8A8B8A89857F7C797877747273787AC3
S11313407A7E82808185888885888C89868A8B8646
S11313508383827E79797A787778797C7D7C7C7CCA
S11313607D7B7E82817E838685848685848282805D
S11313707B7D7F7C7B7C7E7F808181838585868667
S1131380888785858383827F7D7B7C7C7A7A7A7A61
S11313907B7B7C7D7C7D7F7E808181838383848550
S11313A08786858483848382807F7F7E7E7D7C7C28
S11313B07B797C7C7B7C7F7F80828384858585842C
S11313C08383828081807D7D807F7C7B7D7F7D7D2A
S11313D07F817F80818384848182858482808183EC
S11313E07F7C7F827E807F7F817E7C807F81807D09
S11313F07E80807D7E7E7F818082848283848282DF
S11314008181827F7E7E7E81827E8083817F7F7FD9
S1131410807D7A7D807F7D7E817F7F7F7F808280DB
S11314207F8788827F8385837C7D807F7C7B8081AE
S113143080827F828382837D8281847C7F856C9994
S11314409C30A2A65F7D877979798C8172848882A9
S113145089857F807A798F6D75997D64968F43AD88
S11314608F61A0757991668B777C995893B2697670
S1131470A56C6F9B6F5D8F795E918D6B8C8D718C7C
S11314808F778492788993738D936B7D8767797F47
S11314906D77836F81857D838A807D968C58AD9826
S11314A05CAD734DA66E5E99797192808193857E51
S11314B087807E81778B8477948C7F8E7F7E806714
S11314C0666C5F606466707B7D899D9D98AFAD940A
S11314D0A5A37F7F7F6C6E6A5F77845B68B7896E34
S11314E0C6B37A91A7753E50511B1B3E44576F9B60
S11314F0CDC6DAFCE9C9C9BD8F7160594F2B407064
S11315005F994E07F1DD5CC6FC858CBFA84A0A2AA8
S11315101C00003E71346DFFFFCCFFFFD098A48BFC
S1131520412952492646757476CCC000A0FF6975DE
S1131530FFA157B7B26A2B173423002CA1555CE1E5
S1131540FFC7D2FFF28C6983580C225A393A7C9334
S11315508F97E0D00F8BFF7434FFA7158AAA8535C7
S11315600048830036EA9A60B6FFBF7FC5F773016F
S11315706791150B95944D7BDCAA8C9EDC8500ABA2
S1131580FF3624FF8D07A0C19C2A0281850062FFDB
S11315909559B1FFA459BED749016C882335A09A47
S11315A06098DC887597C85A00D7FF2B45FF8E06D4
S11315B0B2CF9E000CA9640080FF804FC1FF87500A
S11315C0B4C23A00919B054EC7B06E85CDA2787E19
S11315D0BA3800ECF51666FF752BDBBE930900974D
S11315E05E0086FC7B66C7FF9C5AA5BA2F009395C4
S11315F01151CBA78B99C4A76563A15F00B4FF39D0
S11316003CFFC909C7C39A2500918E0046FB986E1A
S11316109AFFBD3F8FCD520077902D4CA8AF868B9B
S1131620CABD6F67A87A009AFF3F26FFD10AAFD1DF
S11316309B3E007298002EFF9B6289FFEA4878DB8C
S11316407A005FA6263798A79284C8CF7A70ADA691
S1131650005CFF6E00DBFB186FD4C3440063B20769
S113166007FBA7677AFAFF557AD18A004A9D42267A
S11316707FB58A77C1DB877792B82800F2C7007CF0
S1131680FF573EBCDA9B0033C45100C0D15A62B448
S1131690FF8951BFCF231EA4702156AB95698CDA04
S11316A09E6E86BF6A00BEFF3440FFA4219DD2A770
S11316B000149F6F0079E7746491FFCB47B6F33D44
S11316C00190791F3394A56B7ADCBA7C93B8A1009E
S11316D072FF5615EFCF257BC8BB1D007D8E0052CF
S11316E0ED70648EFFF067B6FF53088572211166B2
S11316F09D5F5CD6D67FB0CDD61E29FF9D00A6F097
S1131700333EB7D03F005EA20F03DE9E4476F5FF62
S11317108E89FFA80C7B8F301554805B52A7D98922
S113172095CCEF5A00E2DD0068FF4131B6BA5F178D
S11317305CB62500BC9A3867D2FFA171FFEC1F721A
S1131740B347124E7A52388FCC7E81C7DD8609B9F1
S1131750FF2530FF8C1E95DF620865B92D008CA132
S11317602D42BDEF907CFFED5A8DD3722F668B47CF
S11317702879995264A4A89F2C85FF6D21F4D13A4D
S11317807EE08B0F54D142006F92302B8EBF7E725D
S1131790E4DE85A3DDAD6F88A46842707842477E9D
S11317A074634C7DDA8143CFDF6783DCAD466DB76C
S11317B0661D5D75372F697C5567ACAE8BADD8C09F
S11317C0A1ADC29C727E8164545E5F536070516EA1
S11317D09C776F9FA48CA0B296899E926862674E94
S11317E045464F57516C898E9CB9C2C2C0C7BEAA28
S11317F0A0997E65655D534F4642627D544EACB1FF
S1131800709CD8A383BDB66761815D2A36503E2E95
S11318105484898BAFD3CECFDED0BCB0A2907259A2
S11318205352493D43515F6B4F6ABB986EB4D0929B
S11318309AC8935670733527413E3252809698B5B4
S1131840D7D8DBD9C8B5AA9A887456555A4A4B4892
S113185043587C4B3FC5B15DACE0A497D1AC516714
S1131860853A1D41362143747F86ACCDDAE3DFD956
S1131870CDB7A89576544D554A3B3F4A4F706633D1
S11318809AD37384DCD29BB6D6713B785D0C12304C
S11318902C2E639194A9DCF3E4E2E9D1B6AD9B74F8
S11318A0565252433A42403B637E285BF09E60CCE2
S11318B0E1A6A7D89B365F751F052D291B4F8C8E7B
S11318C09BD4FFF0E6FBE3BEBAA36E4F52492F2C24
S11318D03B41444C884B0CDCF058A3EDBE99D7C671
S11318E03A44884300202E1A3C7D9098C3E7ECE3E9
S11318F0E4DDD3AE8D93705152583D32505244883A
S1131900950077FFA371CAE491A2EC67004D6901C9
S11319100026324888ABC5DDEEF9F2D1B6A8A48919
S1131920706E6863584E59544C4E8867007DFF9919
S11319305BA5FF9280D87216486B28003BA7A37260
S11319409BE5C88CBCBD696F9E9E7B819E876B6C3A
S11319506C5651616174570087FF9D799BD9C5B955
S1131960961F146E7A1D0059DEAD618FBA93919A59
S1131970634897D0A480A09E666D6B43405C5E650F
S11319809876407EFFDA716EBDB8A19C280031C103
S11319909A053EB5BD805E7C6484D8BC628AFEE54F
S11319A09066755C50604A47448880A0AB4F4FAF47
S11319B0FF91557CA2B3B86900035AEC7E00529C97
S11319C0A3A271606CBCFFBC4367C0C57D573536AC
S11319D096AC6A2635A49BD7842964A8FFC67C4BA1
S11319E0358FF19F130056C6A269544137D2E86E71
S11319F0388FFACF834F59649FBF703260A77D4FF1
S1131A00539E99A89C3C587CFFD4AC780643B3FF02
S1131A1069000994C09CA7230951F0FF5B1C7FBD9A
S1131A20C7C073273FB3DD94524D5E7094A79E7771
S1131A3097582E6B91FFC1AC671E41C1FF6E001118
S1131A406ED0B9A23C003EBDF880497762AAF2CDBF
S1131A5049256CC4CA956D1F187EDEB77E982B3954
S1131A6082A4FFB79E670E49AEFB84001C38C3D620
S1131A70BA5D053F70CBD1C17A0659E8E88D2C3B9D
S1131A8057C3E3BB6C0C27ABFFAEB23C00667CFFD4
S1131A90BA955A113A93F5CE2E0E3875F3DFAC1180
S1131AA02A4F9EDECC87081CA7FFB5672C4184F320
S1131AB0DB9245176EC9CCAF5E00686DC6E8A98B92
S1131AC00D3052E8CD873605269EFFE66F04586B2D
S1131AD0B5FED4760A2E9BCDCB72110C8AEDC58946
S1131AE0432398E4F280016E5FD4FCBA8000243270
S1131AF0C8C38545000F8BFFE7A3134470BBFFD712
S1131B008F27387DB8C884291977B7A77D4B4395AB
S1131B10C3B52F488095FFEAD147001F77E9907439
S1131B20060038DFFFB27B11536BC6FFD27F4047FC
S1131B306EC2DF851E22658B968C705F7AA9404742
S1131B40A995F4F5CE91173F61B3866F2A001C9EC8
S1131B50FFAA8A451D859EF8FFAF72505C97D5B6E3
S1131B605D31385E7FA79C71719D4243A57FDFF094
S1131B70A98E0F365CBB9E5337000995FFC8964B60
S1131B80247CACF4FFAA6E635D8BBEA267534C4306
S1131B905C90B37D778A294EB69BEEEFB677094306
S1131BA06AB38E722A001693F6B997462A7EB1F666
S1131BB0EFA87F7464789A9071645A4353A4AF85F4
S1131BC0A94833A4ACBCFFCA9A1D174B6EA47B5022
S1131BD000004AC3D3CC9F394D86E8FFD2A05846B3
S1131BE069A8B38F785A4B68938DBB711077A6920E
S1131BF0FFDDAB4703305C93878A14003294D1EA4B
S1131C00C86A3367B5F2D9A9813740809599BE83F4
S1131C105160717EC06E1468A99DFFFFB06A0D0B00
S1131C2039769C901200346FD9FFD179354D86B343
S1131C30F8D19653407C8FB9CD904B3F6069B65E26
S1131C400D7FBFAAFFFF9A681B0127689D8B1B04A9
S1131C502C73D1F9BE7B23348797FFF39A82616694
S1131C6074BAE891454544A08F2A66BD87C1FFBD7B
S1131C708D4B05002D82AB614547478DDBD79F60B7
S1131C801B4E7CBFFCD29373545193CFE284462DF8
S1131C9073932D68C39198FFC4836B28001F6C90C5
S1131CA0887166477CBBC4B37A2F2D6B95E2DDA1A6
S1131CB0895F487ECEE6904F3092683394C189CCD8
S1131CC0F49F7B4D0300508E9663575867A7D8BF87
S1131CD09E5C104972A0F0BB8A81586B98E0D57F56
S1131CE0406A9C2F56BA8B9EFFBE755620001F7CFF
S1131CF09A72465F7E9EE8ED95732F176081BAE471
S1131D00AB8F635685B1DCA94751872D50C0A79D81
S1131D10FFCA7F703600016D888472566592D0F2D6
S1131D20B67E43074C7E9CE4D19B70506585B4AA73
S1131D3069628E3E50BED5ABFFF48561420000441B
S1131D405F828B634680B7CCE4A3521C31608CE67F
S1131D50DBAA7C485B89ACA6855397684CBBE1C879
S1131D60CBE3B66858010011174588765B95B9AE88
S1131D70E3CA7C5E4B4262A5AAB5BB89839793886C
S1131D808F615D96415FC2E2EAA8BBD6853E000042
S1131D90000036625E7BC0CFF0FFE4AA80472E5578
S1131DA07875A4AB95968B89928C606386355DBFFC
S1131DB0E1F0B39ED4AD4E0000000018405490C82A
S1131DC0CAF7FFF7DAAD5D40544D4F7F8C808987A9
S1131DD07E8B91785E826C5A8FCEF6D6B7BCA9857D
S1131DE03201000000193C689BBDD4F5FEE7C3A195
S1131DF088796F5F5D656B767C8382818177819260
S1131E008C8297A8A6B2AAA1937F6F502F271D2179
S1131E10383E4E7E9B9BB0CAC2C0C6B7A59E93896E
S1131E2080899280776E615A55617B827B80877F3F
S1131E30839283797F7A7A7D7F7C7D848684847D96
S1131E406B6767656F788A978E98A5A39A8F8D8D37
S1131E508A8E91887F7E79778081766D69665F64EA
S1131E606F7177828686868079726C696C707784EC
S1131E70888A9295928E89898881898C899697938C
S1131E808E8A877D7A756E7372757674726E7271CE
S1131E906F76777675797A7B83878D8E9092919021
S1131EA08D8A8684837C80838386858B8783807AEE
S1131EB07572767573787D7E7E7E7C7D7A797C7D85
S1131EC0838684878C9193908E8D8782817B7775AE
S1131ED07576726F6F6A696C6E717780868C929674
S1131EE096969693908D8987838285817F7C76717F
S1131EF06D71716F71787C77818587858389838023
S1131F008483797879787375797B818788868C8CDA
S1131F108B8B908D8A8E88828484698879687165B8
S1131F207F6D6F7B73929E7A738690898599918D6C
S1131F30959184766C5A595564747B85818A8B9407
S1131F409081978B90978CA7687DB9685D84B290D7
S1131F5066765E6F8724088EB0B8E8F4B24977A33A
S1131F60583E48370222686F8ABCE3CAB6AA897D04
S1131F70858B8792897786837A7F7A6850526EB888
S1131F80313DB7ECEDCAFFEC2D4E4D1200001500AB
S1131F90118CE1E0FFFFFFB6A5986023231E277B89
S1131FA0D0D8C4BB8158424F3F8B600081EFFFD231
S1131FB0F7FF8416180000062D001DB3E5FFFFFF90
S1131FC0FF6D466B8F4200257591DDFFE48D514313
S1131FD02C41384B922457E6FFF1FFFFB505063933
S1131FE0463C00016792BAFFFF97705C236AAE62B9
S1131FF0355AB5EFEFC698603A4E4A2C4F65B79CF8
S11320004BA3D7CCFFF7981E004C998E0000658235
S1132010B9FFE784305C875D8CA96D5094FFE16E55
S1132020554C4B628268488B98E58F41B5A4C3FF39
S1132030B56E00008FC272000F7D75EAFFBD4300CC
S113204088CA7A627F678EE3E49D2C3C7F82747336
S11320506365B19C93CD4F2D8085DAFA944C196554
S1132060A7C52900335CABF4E3A61539F9EB3F228D
S11320704788E3C8A2651A6CB58B6B667092A48D11
S11320806BB67B065A74C8F8AE93503C8CDD98004E
S11320900C4770DAF0C4410093FF86001072C5D774
S11320A0BA80163FB9C77B5D6B94AE927B72D56FD5
S11320B007536BF7FD9776353298FA9000033ECAC2
S11320C0EFB9A420009AFF850B22A0ECD7AF631CC4
S11320D04BB5AF5D4E8199AA907C65A7AF0A2E4B94
S11320E0E5FFC0613453A9F2B0000035D5FFAE78E6
S11320F03B1257FFD7140473EFE2A55F2B4CACC31C
S1132100653582B4A188667174E672171F81FFFA7F
S11321108E222F94C3E95C00005CFFEF9D370D4DC8
S1132120BCFF85001CA8FFE87A29338DBE9C484378
S11321309AC8A57C44648CDC83001074FFFF810082
S11321403BC4D7CC5B000056FFFA9B2B2268C0FF30
S11321508A0C1C97FFE98A312D72968F634579BCEE
S1132160A379507998D59103246EFFFF9C1809B187
S1132170F3D77600002AECF7AB3E004EB5F3B73C3C
S11321801587FAEB833243799A8A62507CC5C78EED
S11321905A509AB3CE42001EB7FFE34C0040EEE51E
S11321A0BE1F000C76FFDDA3110079F8FF75113511
S11321B0BFFFCF5814499ABF8B4B4989D3BF75438E
S11321C051ACBCD42F0020B6FFF256002BEAFAD74C
S11321D025000D7CFFE39B040079F2F0761D48ADE9
S11321E0E5C66E2B4290AF8B5D628CB5AC80685DAA
S11321F09B9ED05B000F86FFFF84000AB0FFD5676B
S1132200000B36F9FECC390039DAFFA72B2693D61A
S1132210CEA85B3B53AAB57D545889A790805F6EC6
S113222096A3B8111631DCFFF5450034E6FFDD3620
S1132230000073FFF29A00005BFDFF97393B7BB20D
S1132240D3A954327BC0A8605778A79F837B75635A
S11322509A93C93E0725B0FFF9600015CFFFDC4B08
S1132260001251FFEAB2160049F7FF871A2E92E5D1
S1132270E6A63D2365BFB76E4468A7A47D6B6B6774
S11322809094AB860A1C5CFFFFDC1A0051FFFFB57B
S11322900400069DFFD35D0007A0FFDB450D44C18C
S11322A0FFE9741B3BA1E5A5514273B6A8835C6B9F
S11322B0808F9B6EAE2D1D39C2FFF95C0020D7FFC5
S11322C0C71900175CFCF2A608004FFFFF8200212B
S11322D09BFFE58342457DCDBC6D2E4D97AD9D6C36
S11322E05F6B91918C679E57264E96FFFF91000776
S11322F0B1FFD44600104CDBF9B62F002AD5FFA459
S1132300111D89EBF19C50458AB8B0713A518EADDC
S11323109B675B7493A67C5D6DA833334BD5FFEF4D
S11323204D0041F0FF8400002878E6EB8703006E3F
S1132330FFFF69003FBEFCED984D4B9DCA9D4A1DB1
S113234058AEA46F4D638DA1A05F5752B59E38441B
S11323506DFFFFC600008BFFDE2900116DCDE99BE8
S11323602B0042C7FF9C15159DF8EDA25F6F9DBD24
S1132370A6653248A0BA89474378ADA0743C485E4C
S1132380BCB12E3162FFFFE8160075FFEF35002166
S113239076B1C387451D3493EFB42E238DE9ECB990
S11323A074659DC5A859284298C48E404279AAA351
S11323B06258497381CD93194E8DFFFFA70000B376
S11323C0FFBD00002889C2BA69312956A7D58B39C7
S11323D04CB0E8D6B492959FA9915F3E578A8E6D12
S11323E0485893A8825A667170749DCF3B3A53E95A
S11323F0FFF13E0066FFFF5200005FB6CE9D3B1426
S11324003996CD973438A1E0C7A69E9EACB29B699D
S1132410414980997142448AAA94674E656A6E76EE
S1132420819ACE434962E9FFDF1F0076FFED420047
S1132430005CB6D7AE551A3596D2AC41338BD3CCAB
S1132440B2A6A7A396836E5955718C76494B7B9A95
S11324509A7D5755658893977FB2B9475C70FFFFA3
S1132460B6000095FFB81C00004CBDF1B43E0B56FD
S1132470CCDB741C40AAE1D4B2A4A1989893703E1A
S1132480458AA57035519BB18048456C818487820B
S11324908183A8FA6C3A58C2FFEB2C006CF0D33954
S11324A00001458FC0BB712D48ADE5991D1288E42C
S11324B0E4B293A3B8B69B6E4B4D80A67F474C8580
S11324C0A38759454E627C8D8578739AABE9A5192B
S11324D04772FFFF92052CC8F7870800184E8ECA72
S11324E0B0572C66C7D5670E3DA1C8B3B4C1C5A704
S11324F08E8B78605E788A6D576C949F7651495ABA
S1132500696C727B7F8495B8B6B9A93A456EE2FFCF
S1132510C63C288ED3962600002A79B0B2784D7B2B
S1132520D0E38C343C8AB7AA989DB4B2AB9E76476C
S113253047768B74586A929F845F595D64686B71A7
S113254072829FBBAD9D99AAAD423E6AD4FFB95A2F
S113255045809E792C00052E6EA7B4968099C3C63B
S11325608C52557E999A9DAFB09E959187614E602D
S113257073685A6F8F9785726B6A65626C7A7E8412
S11325808CA4BAAE978D9DA55B3669CFF7AC5C4A37
S113259076835B2C1C29355C98BCB7999BBFC89E7D
S11325A06B6378868991A0A69E938A7363686D6134
S11325B0545C7B928F8378716E6C6D6A67738DA89F
S11325C0ACA39B9D9A929A9A673359BDEAB86C4C16
S11325D06277663F2420305A8EAFAF9DA2C5D6B134
S11325E07D6D7E888080888F909090846F6264680F
S11325F0655F687C8D8E858080807B71696D7C8B46
S1132600969C9C989899907E71707B897B5E659767
S1132610BEAE7D5D65706957494953698AA4A49823
S11326209CB2B89F817D898C80767A858B86827AEC
S11326306E686D726E686F82908D82818688837DEC
S11326407A797A7D81868A898A8E8D857E7F7F7A62
S1132650747A817466728F9A8F7F7C86877C71729C
S1132660736F747D817F828D97968D8B8E8A838024
S1132670807F7C7B7E7F7B75757A7A78798086868D
S1132680837E7E7F81817B75798285807F83858649
S113269086858687827E7E82817C7E8285807A7A28
S11326A07F8586807A7B7E7B77797873737B807F66
S11326B07F838A8D8A898C8F908D8B8C8A837F808F
S11326C07D78777778767476787C79757A7D7D7E77
S11326D080828182818083817E84888784848784C8
S11326E082848282807C7E817B797C7C7C7F8083F7
S11326F08784838788848283827E7D7C7A787775D9
S1132700787E808184848486878583848686878690
S11327108484838081807D7B7C7B797B79767676EB
S1132720787B7D7C7E82818185858482808185849D
S1132730818486868684838180807D7E7C7B7D7E89
S11327407E7B7F807E818181818284848682818375
S1132750817F7F80807E7F7D7F7F7B7C7D7D7C7E93
S1132760817F8386878785868485848081807E7E39
S11327707E7E7C7E7D7C7E7D7C7C7E7D7C7E7D7B86
S11327807D7D7E8083838487858686858381807E24
S11327907E7D7C7F80818080817F81828081807F3B
S11327A07F81817F82818183818180807E7D807C25
S11327B07C7C7C7F7F818182858385848483828203
S11327C07F7F7F7D807F818181817E7F7F7D7E7C15
S11327D07B7C7D7E7E8181818282828282828182F3
S11327E07F7F807F7F80818181828081817F7F7EE6
S11327F07D7C7D7D7E8081828384838384838182CA
S1132800817F7F7F7F8081818182818181817F7FC0
S11328107E7D7D7D7D7E80818182828283838181B4
S1132820807E7D7E7E7D80818182838282838180A1
S1132830807E7D7D7D7D7E807F8081807F80807FA6
S1132840807F7D7E7F7E7F8181828383828382817C
S113285080807E7D7D7D7E8080808182818182807A
S113286080817F7E7F7F7F81828283838282838255
S113287081807F7E7E7D7D7E7F8080828181828259
S11328808181807E7E7E7E7E808181828281828241
S11328908080807E7E7E7F7F808181818180818136
S11328A08080807E7D7E7D7D7F8080818282828328
S11328B0828181807E7E7F7E7F818181828281820E
S11328C08180807F7E7D7E7D7E8080808282818209
S11328D0838181807F7F7F7E7E7F808081828181F2
S11328E0828080807F7D7E7E7E7F818182838282E2
S11328F0838180807F7E7E7E7D7E808080828280D8
S113290081818080807E7E7E7D7E808181828382C3
S113291083838181807F7E7E7D7E7F8080818281B2
S113292081828180817F7E7F7E7E7F8080818281A3
S113293081828181817F7E7E7E7E7E808081828293
S11329408282828081807E7D7E7D7E7F8081828284
S11329508182828180807E7D7E7E7D7F8080818277
S1132960818283828182817F7F7F7D7E808080825D
S11329708181828180807F7E7D7E7E7E8081818256
S1132980828182828181817F7E7F7E7E7F80808141
S1132990828181828180807F7E7E7E7D7F80808136
S11329A083828283828181807E7E7E7D7E8080811F
S11329B082818182818080807E7E7E7E7E80808016
S11329C081828181828081817F7E7E7E7D7F808005
S11329D082838282838181807F7E7E7E7D7F8080F0
S11329E08182828182818081807E7E7E7D7E7F80E5
S11329F08082828182828181807F7E7E7E7E7F80D2
S1132A008082828182828181817F7E7E7D7D7F80C2
S1132A108081828181828180807F7E7E7E7E7F80B4
S1132A20808182818182828081807E7E7E7D7E7FA4
S1132A30808082828182828181807F7E7E7D7E7F92
S1132A40808082828182828081817F7E7F7E7D7F81
S1132A50808081828182828181817F7E7E7E7D7F72
S1132A6080808182818182818081807E7E7E7D7E64
S1132A7080808082828182828181807F7E7E7E7E50
S1132A807F808082828182838181817F7E7E7D7D41
S1132A907E7F7F8182818282818181807E7E7E7E33
S1132AA07F80808182818182818081807E7F7E7D22
S1132AB07E80808082828182828181807F7E7E7D11
S1132AC07D7F808082828182828181817F7E7F7E00
S1132AD07D7F807F8182818282828181807E7E7EF1
S1132AE07D7E807F8082818182818081807E7E7EE6
S1132AF07D7E7F808082828182828181817F7E7ED1
S1132B007E7E7F808082828182828181817F7E7EBF
S1132B107D7D7E7F7F8182818283828181807E7EB2
S1132B207E7D7E80808182818183828182817F7F9C
S1132B307E7D7E7F7F8081818182828181807F7E94
S1132B407E7E7E7F808081828182828181817F7E80
S1132B507E7E7E7F80808182828282818180807F6E
S1132B607E7E7E7E7F808081818182818181807F63
S1132B707F7F7E7F7F808081818181818181808050
S1132B807F7F7F7F7F808081818181818180808040
S1132B907F7F7F7F7F7F8080818181818181808031
S1132BA0807F7F7F7F7F8080818181818181808020
S1132BB0807F7F7F7F7F7F80808081818181808013
S1132BC080807F7F7F7F7F80808080808181808004
S1132BD080808080808080808080818181808080EE
S1132BE080808080808080808080808080808080E1
S1132BF080808080808080808080808080808080D1
S1132C0080808080808080808080808080808080C0
S1132C1080808080808080808080808080808080B0
S1132C2080808080808080808080808080808080A0
S1132C308080808080808080808080808080808090
S1132C408080808080808080808080808080808080
S1132C508080808080808080808080808080808070
S1132C608080808080808080808080808080808060
S1132C708080808080808080808080808080808050
S1132C808080808080808080808080808080808040
S1132C908080808080808080808080808080808030
S1132CA08080808080808080808080808080808020
S1132CB08080808080808080808080808080808010
S1132CC08080808080808080808080808080808000
S1132CD080808080808080808080808080808080F0
S1132CE080808080808080808080808080808080E0
S1132CF080808080808080808080808080808080D0
S1132D0080808080808080808080808080808080BF
S1132D1080808080808080808080808080808080AF
S1132D20808080808080808080808080808080809F
S1132D30808080808080808080808080808080808F
S1132D40808080808080808080808080808080807F
S1132D50808080808080808080808080808080806F
S1132D60808080808080808080808080808181805D
S1132D7080807F7E7E8282808283817C7F807C7E55
S1132D8082817F80847F7C827F7B8083817F828439
S1132D907D7E837E7C81837F7F84827C80827C7D38
S1132DA082827F8085817C81817C7E83817F818515
S1132DB07F7D827F7C8083817F83847E7E827E7C14
S1132DC081837F7F84827D7F827D7D82827F8084F8
S1132DD0817D81817C7E82827F81847F7D827F7CF4
S1132DE07F83807E83847E7E827E7C8082807F84DB
S1132DF0837D7F827D7D82827F8084817D80817CD2
S1132E007E82817F81847F7D817F7C8082807F82BE
S1132E10837E7E817E7D8082808083827E7F817EB0
S1132E207D8182808083817D80817D7E82817F809F
S1132E3083807D81807D8082818082837F7E817E8C
S1132E407D8082807F82827E7F817E7D81827F8081
S1132E5082817E80817E7F82817F8082807D81806D
S1132E607D8081817F81837F7E817F7E8082807F60
S1132E7082827E7F827F7D8082807F82817E80814C
S1132E807E7E81817F8082817E81817E7F81817F40
S1132E908082807E817F7E8081807F81827F7F812E
S1132EA07F7E8081808082827F80817E7E8181801E
S1132EB08082817E80807E7F81818081837F7F810B
S1132EC07F7E8081818082827F7F817F7E808180FE
S1132ED08082817E80817E7F8181808082807E80ED
S1132EE0807E7F81818080827F7E807F7E808181E1
S1132EF08081827F7F817F7E8081808081817E7FCF
S1132F00817F7F8181808081817E80817E7F8181BC
S1132F10808082807E81807E7F81817F8082807FAD
S1132F2081807E7F81807F81827F7F81807E80819E
S1132F30807F81817F80817F7F8181808082807F8B
S1132F4080807E7F81817F8182807F81807E7F817E
S1132F50807F81827F7F817F7E8081808081817F6D
S1132F607F817E7E8081808082817E80807E7F8062
S1132F7081808082807F80807E7F81818081828049
S1132F807F81807E8081808081827F7F817F7E803F
S1132F9081808082817E80807E7F81818080828129
S1132FA07F80807E7F81817F8082807F80807F8020
S1132FB081807F81817F7F817F7F8081808081810B
S1132FC07E7F807F7F8181808082807F81807F7F00
S1132FD081808081817F8080807F808180808080EB
S1132FE08080807F8081808080808180807F8081DC
S1132FF07F8080808080808080817F7F80808080CF
S113300080808080808080808080808080808080BC
S113301080808080808080808080808080808080AC
S1133020808080808080808080808080808080809C
S1133030808080808080808080808080808080808C
S1133040808080808080808080808080808080807C
S1133050808080808080808080808080808080806C
S1133060808080808080808080808080808080805C
S1133070808080808080808080808080808080804C
S1133080808080808080808080808080808080803C
S1133090808080808080808080808080808080802C
S11330A0808080808080808080808080808080801C
S11330B0808080808080808080808080808080800C
S11330C080808080808080808080808080808080FC
S11330D080808080808080808080808080808080EC
S11330E080808080808080808080808080808080DC
S11330F080808080808080808080808080808080CC
S113310080808080808080808080808080808080BB
S113311080808080808080808080808080808080AB
S1133120808080808080808080808080808080809B
S1133130808080808080808080808080808080808B
S1133140808080808080808080808080808080807B
S1133150808080808080808080808080808080806B
S1133160808080808080808080808080808080805B
S1133170808080808080808080808080808080804B
S1133180808080808080808080808080808080803B
S1133190808080808080808080808080808080802B
S11331A08080808080808080808080808080818119
S11331B0807F80807F7F7F7F7F807F80828281810C
S11331C0828281807F7F80807F8081807F808080F9
S11331D07F7F7E7F807F7F80818080818180807FF0
S11331E07F80807F808181818181818080808080D7
S11331F08080808181818182818180807F7F7F7EC8
S11332007D7E7E7C7D7F80808283828484817F81B9
S1133210817E7F7F7E7F7E7B7B7E7F7E82838485B3
S113322085838384838182817F7F7C7A7A7C7B7BA4
S11332307D7E7F8080808284838586868685828168
S113324081807E7E7E7D7D7D7B7C7E7E7F8283848D
S11332508584838484828282817F7E7C7A7B7B7A6C
S11332607B7C7D7E7F7F8083838485858585838148
S113327081807E7E7D7C7D7D7B7B7D7D7D7E818668
S1133280868587868482807F7C7D7B797D7F808232
S1133290838583828180817D7D7E7C7D7D7E80832C
S11332A08582828685828384807B7C7B797D7D7B1D
S11332B07E83838084868483848381817F7B7B7CFB
S11332C07A7A7D7F818183848483828384818080F0
S11332D07E7D7C7C7B7E817F808484818182807FF3
S11332E0817F7E7F7F7C7C808180828483838381D5
S11332F080807F7C7C7E7D7C7D80808081828585D2
S1133300838484827F7E7D7C7D7D7B7D81818082C0
S113331084828182818080807E7E807E7D808181A6
S11333208081817F807F7F8181808081807E7E7E9D
S11333307F807F7F81838281838381817F7E7E7D85
S11333407C7B7D807F8184848484848381817E7D71
S11333507E7E7D7D7F807E81828283818181818169
S11333607F80807F807F8081807F7E80807E81815E
S1133370818281817F7F7F7C7E807F7F8083828248
S113338083828282807F7E7E7D7B7D7D7E80818341
S11333908383838282817F7F7F7F7E7D7E7E7F7F2A
S11333A07F8181818181828181818081817F7F8010
S11333B0807E7E807F808181828282817F807F7D0A
S11333C07D7E7F7F808181838282838282807F7FF2
S11333D07D7D7C7D7F7F80818383828282818280E8
S11333E08080807F7D7E7F7E7F7F808180818081E1
S11333F08281818181817F7F7F7E7E7E80818182C7
S113340081828280807F7F7F7D7E7E7F7F7F8282BC
S11334108283828382817F7E7E7D7C7D7E7F7F80AE
S113342082818282818282818180817F7E7E7E7F91
S11334307E7E7F8081808081818282818281807E84
S11334407D7F7E7E8081828182828181807F807F78
S11334507E7D7E7F7E7F81818383838282827F7F64
S11334607F7E7E7D7E7F7F7F7F808181828282825C
S113347082818080807E7E7F7E7E7E7F7F80818150
S1133480828382818182807E7E7E7E7F7F80818234
S11334908281828180807F7F7E7E7E7E7F7F80822C
S11334A0828382828281807F7F807F7E7E7F7F7E17
S11334B07E7F80818182828383818181807F7E7E01
S11334C07E7E7E7E7F808081828382828281807FF5
S11334D07D7E7F7F7F8082818182818181807F7FE9
S11334E0807E7D7E7E7F80818282838281828180D4
S11334F08080807F7E7F7E7E7E7E808081818283CD
S11335008282818181807F7E7E7E7D7D7F7F8181BD
S1133510818282828180807F7E7E7F7F7F808080A7
S11335208181818281817F807F7E7E7E7E7F7F809C
S11335308182828181818182818180807F7D7E7E82
S11335407D7E7F80818182828282818282817F7F6F
S11335507E7D7D7E7E80818181828381808080806A
S11335607F7F7F7F807F7F81818181818181808056
S11335707F7F7E7E7F7F7F7F808081818181828249
S1133580828181817F7E7D7D7D7D7E7F8081818240
S1133590828282828281807F7E7E7E7D7E7F808128
S11335A08182818181808080807F7F807F7F7F8016
S11335B0818181818182807F807F7F7F7F7F7F7F08
S11335C07F7F80808182828382828280807F7E7EF0
S11335D07D7D7D7E80808081828383828282817FE3
S11335E07E7E7E7E7E7F80818180818181808081DC
S11335F08080807F7F7F7F7F8181818182818080C5
S1133600808080807F7E7F7F7E7E7F8081818283B9
S113361083828181817F7F7E7E7D7D7D7E7F8080B0
S113362082838382828281807F7E7F7F7F7E7F8090
S113363080808081818180808181807F7F7F7F7F86
S11336408081818181818181808181807F7F7F7E72
S11336507E7D7E7F80818183838282818181807F60
S11336607E7E7E7D7D7E7F80818282828281818159
S113367080807F7F7F7F7F7F7F808080818181804A
S1133680818180807F7F807F7F7F81818081818134
S11336908181818180807E7E7E7D7E7E808081822C
S11336A082838282828281807F7F7E7D7D7D7F8016
S11336B08081828382818181818180807F7F7E7EFF
S11336C07F7F7F8081818181818080807F808080F5
S11336D07F7F807F8080818282828181817F7F7EE3
S11336E07E7E7E7E7F8081808183828282828181D0
S11336F0807E7E7E7D7D7E7F8080818182828181CD
S11337008281808080807F7E7E7F808080808181B6
S1133710808080808080807F7F7F7E7F80808181A9
S11337208282828281807F7F7E7E7E7D7E7F7F809B
S11337308182838383828281807F7E7E7E7E7E7E81
S11337407F808080818181818182818180807F7F6F
S11337507E7F7F807F808181808081818180808065
S1133760807F7E7E7F808081828282818181808051
S11337707F7F7E7D7E7E7E7F808182838382828244
S113378081807F7F7F7E7E7E7E7F7F80808081813F
S1133790818282818081807F7F7F7F7F7F80808024
S11337A08081818181818080807F7E7E7F7F7F8018
S11337B081828282828181807F807F7E7E7D7E7E07
S11337C07F7F8182828282828281808080807F7EEC
S11337D07F7E7E7E7E8081818182828181818181E2
S11337E080807F7F7F7E7E7F8081808182818080D8
S11337F0807F7F7F7F7F80808080818281818282C1
S113380080807F7F7E7E7E7E7F80808081828281B9
S113381081828281818080807F7F7E7E7F7E7F7FA8
S11338208081818181818181818080807F7E7E7E93
S11338307F7F808181818181808080808080808081
S11338408080808080818181808180807F7F7F7F74
S11338507F807F808080808081818181818181805F
S113386080807F7F7F7E7E7E7F7F7F80808182825B
S11338708282828180807F7F7F7F7F7E7F80808045
S1133880808181818181808080808080808080802F
S1133890808080808080807F7F7F80808080808027
S11338A0808080818181818181808080807F7F7F11
S11338B07F7F7F7F7F8080808182828282818180FE
S11338C080807F7F7F7E7E7F7F80808081818181F9
S11338D081818180808080808080808080808080E1
S11338E080808080808080808080808080808080D4
S11338F0808080808080808080807F7F7F7F7F80C9
S1133900808080818181818181818080807F7F7FAF
S11339107F7F7F80808080808080808080808080A6
S11339208080808080808080808080808080808093
S11339308080808080808080808080808080808083
S11339408080808080808080808080808080808073
S11339508080808080808080808080808080808063
S11339608080808080808080808080808080808053
S11339708080808080808080808080808080808043
S11339808080808080808080808080808080808033
S11339908080808080808080808080808080808023
S11339A08080808080808080808080808080808013
S11339B080808080808080808081818080801124CC
S11339C01FBECFEFD8E0DEBFCDBF11E0A0E0B1E075
S11339D0E8E3FBE302C005900D92A230B107D9F7EA
S11339E021E0A2E0B1E001C01D92A430B207E1F7EA
S11339F00E94721D0C949A1D0C94000084B18C6278
S1133A0084B982E58CBD0895982F92959F70906338
S1133A109EBD0DB407FEFDCF9DB590689DBD8295FA
S1133A20807F8EBD0DB407FEFDCF8DB580688DBD42
S1133A3008951F920F920FB60F9211245F936F9304
S1133A407F938F939F93AF93BF93EF93FF932A98A2
S1133A50E0910201F09103013196F0930301E093A8
S1133A600201E859FF4FE4918E2F82958F70806395
S1133A708EBD0DB407FEFDCF8DB580688DBDE2957A
S1133A80E07FEEBD0DB407FEFDCF8DB580688DBD22
S1133A902A9A809102019091030160910001709132
S1133AA001010E94861D9093030180930201FF91FE
S1133AB0EF91BF91AF919F918F917F916F915F91A2
S1133AC00F900FBE0F901F9018958AE0809381008D
S1133AD089EF90E0909389008093880082E080933E
S1133AE06F0008958AE08093810089EF90E09093BD
S1133AF089008093880082E080936F0084B18C6297
S1133B0084B982E58CBD229A7894FFCFAA1BBB1B93
S1133B1051E107C0AA1FBB1FA617B70710F0A61BC9
S1133B20B70B881F991F5A95A9F780959095BC01EA
S10B3B30CD010895F894FFCFC4
S1053B385639F8
S9030000FC
