S00D0000726F626F742E73726563F1
S11300000C9434000C943E000C943E000C943E007E
S11300100C943E000C943E000C943E000C943E0064
S11300200C943E000C943E000C943E000C943E0054
S11300300C943E000C943E000C943E000C943E0044
S11300400C943E000C943E000C943E000C943E0034
S11300500C943E000C943E000C943E000C943E0024
S11300600C943E000C943E0011241FBECFEFD8E048
S1130070DEBFCDBF0E9440000C946F000C940000C2
S11300808FEF8AB921E030E080E090E0A901082EEA
S113009001C0440F0A94EAF74BB94FEF53ED60E304
S11300A0415050406040E1F700C0000001968830A4
S11300B0910561F787E090E0A901082E01C0440F83
S11300C00A94EAF74BB94FEF53ED60E341505040C7
S11300D06040E1F700C00000019770F7D5CFF894B5
S10500E0FFCF4C
S9030000FC
